{
  "contractName": "Tasks",
  "abi": [
    {
      "inputs": [],
      "name": "getTasks",
      "outputs": [
        {
          "internalType": "string[]",
          "name": "",
          "type": "string[]"
        }
      ],
      "stateMutability": "view",
      "type": "function",
      "constant": true
    },
    {
      "inputs": [
        {
          "internalType": "string",
          "name": "_task",
          "type": "string"
        }
      ],
      "name": "setTasks",
      "outputs": [],
      "stateMutability": "nonpayable",
      "type": "function"
    }
  ],
  "bytecode": "0x608060405234801561001057600080fd5b506104ea806100206000396000f3fe608060405234801561001057600080fd5b50600436106100365760003560e01c806304a87e381461003b5780638fd86e2f14610059575b600080fd5b610043610075565b6040516100509190610391565b60405180910390f35b610073600480360381019061006e919061028e565b61015e565b005b60606000805480602002602001604051908101604052809291908181526020016000905b82821015610155578382906000526020600020018054600181600116156101000203166002900480601f0160208091040260200160405190810160405280929190818152602001828054600181600116156101000203166002900480156101415780601f1061011657610100808354040283529160200191610141565b820191906000526020600020905b81548152906001019060200180831161012457829003601f168201915b505050505081526020019060010190610099565b50505050905090565b60008190806001815401808255809150506001900390600052602060002001600090919091909150908051906020019061019992919061019d565b5050565b828054600181600116156101000203166002900490600052602060002090601f016020900481019282601f106101de57805160ff191683800117855561020c565b8280016001018555821561020c579182015b8281111561020b5782518255916020019190600101906101f0565b5b509050610219919061021d565b5090565b5b8082111561023657600081600090555060010161021e565b5090565b600082601f83011261024b57600080fd5b813561025e610259826103e0565b6103b3565b9150808252602083016020830185838301111561027a57600080fd5b610285838284610461565b50505092915050565b6000602082840312156102a057600080fd5b600082013567ffffffffffffffff8111156102ba57600080fd5b6102c68482850161023a565b91505092915050565b60006102db8383610358565b905092915050565b60006102ee8261041c565b6102f8818561043f565b93508360208202850161030a8561040c565b8060005b85811015610346578484038952815161032785826102cf565b945061033283610432565b925060208a0199505060018101905061030e565b50829750879550505050505092915050565b600061036382610427565b61036d8185610450565b935061037d818560208601610470565b610386816104a3565b840191505092915050565b600060208201905081810360008301526103ab81846102e3565b905092915050565b6000604051905081810181811067ffffffffffffffff821117156103d657600080fd5b8060405250919050565b600067ffffffffffffffff8211156103f757600080fd5b601f19601f8301169050602081019050919050565b6000819050602082019050919050565b600081519050919050565b600081519050919050565b6000602082019050919050565b600082825260208201905092915050565b600082825260208201905092915050565b82818337600083830152505050565b60005b8381101561048e578082015181840152602081019050610473565b8381111561049d576000848401525b50505050565b6000601f19601f830116905091905056fea26469706673582212209ed2dc8c06cfe0ceca9c1fc2d952139b3d1fca274c64ec9a2bfe04ba428b179b64736f6c63430007000033",
  "immutableReferences": {},
  "source": "// SPDX-License-Identifier: UNLICENSED\npragma solidity ^0.7.0;\npragma experimental ABIEncoderV2;\n\ncontract Tasks {\n    string[] todos;\n    string tasks;\n    function getTasks() public view returns (string[] memory) {\n        return (todos);\n    }\n\n    function setTasks(string memory _task) public {\n        todos.push(_task);\n    }\n}\n",
  "sourcePath": "C:\\Users\\milan\\Downloads\\todo-eth-blog-main\\todo-eth-blog-main\\contracts\\Tasks.sol",
  "compiler": {
    "name": "solc",
    "version": "0.7.0+commit.9e61f92b.Emscripten.clang"
  },
  "schemaVersion": "3.4.8",
  "updatedAt": "2022-08-03T01:16:15.185Z",
  "networkType": "ethereum",
  "devdoc": {
    "kind": "dev",
    "methods": {},
    "version": 1
  },
  "userdoc": {
    "kind": "user",
    "methods": {},
    "version": 1
  }
}